:020000020000FC
:100000000EE107BB0FE701BB06E0502E07E0402ED4
:1000100008E0302E09E0202E0F9300E108BB052DEB
:1000200030D002BB1AD00F910F9308E008BB042D0B
:1000300028D002BB12D00F910F9304E008BB032D10
:1000400020D002BB0AD00F910F9302E008BB022D13
:1000500018D002BB02D00F91DFCF8F939F9390E017
:1000600081E005D00197E9F79F919F9108950F9343
:100070001F9317E00BEC01501040E9F71F910F910F
:100080000895EF93FF93E2E9F0E0E00F0491FF9110
:0E009000EF913F065B4F666D7D077F6F089511
:00000001FF
