:020000020000FC
:100000000EE107BB0FE701BB06E09AD0502E07E0D8
:1000100097D0402E08E094D0302E09E091D0202EC9
:100020000F931F9310E013951A9521F452BA00E133
:1000300008BB11C01A9521F442BA08E008BB0BC0F6
:100040001A9521F432BA04E008BB05C01A9519F4D8
:1000500022BA02E008BB10E005E063D01F910F91C7
:100060000F931F9311E013951A9521F452BA00E1F2
:1000700008BB11C01A9521F442BA08E008BB0BC0B6
:100080001A9521F432BA04E008BB05C01A9519F498
:1000900022BA02E008BB10E005E043D01F910F91A7
:1000A0000F931F9312E013951A9521F452BA00E1B1
:1000B00008BB11C01A9521F442BA08E008BB0BC076
:1000C0001A9521F432BA04E008BB05C01A9519F458
:1000D00022BA02E008BB10E005E023D01F910F9187
:1000E0000F931F9313E013951A9521F452BA00E170
:1000F00008BB11C01A9521F442BA08E008BB0BC036
:100100001A9521F432BA04E008BB05C01A9519F417
:1001100022BA02E008BB10E005E003D01F910F9166
:100120007FCF04D001501040E1F708950F931F9343
:1001300017E00BEC01501040E9F71F910F91089563
:10014000DF93EF93FF93D0E0E8E5F1E0E00FFD1FD0
:100150000491FF91EF91DF913F065B4F666D7D0744
:040160007F6F089510
:00000001FF
