:020000020000FC
:020000001BC023
:1000080000C00F931F93039409F4139417E200E1BF
:10001800001621F4111611F400241124002D112DBD
:100028001BD0502E412E322E232E1F910F91189542
:1000380078940F931F930CE00EBD00E409BF19E7F5
:100048000EE01BBD0ABD1F910F910EE107BB0FE724
:1000580001BB00241124FFCF6F937F938F939F934D
:1000680033E028EE13D0622F30E024E60FD0722F51
:1000780030E02AE00BD0822F902F092F182F272F3E
:10008800362F9F918F917F916F9108958F939F93B2
:10009800882799270217130720F0021B130B0196D4
:1000A800F9CF9C019F918F9108958F939F9390E032
:1000B80085E005D00197E9F79F919F9108950F93E7
:1000C8001F9317E00BEC01501040E9F71F910F91B7
:1000D80008953F065B4F666D7D077F6FEF93FF9333
:0E00E800EAEDF0E0E00F0491FF91EF91089532
:00000001FF
