:020000020000FC
:020000002CC012
:0200080007C02F
:1000160002C0000018950F931F932F933F938F9361
:100026008FB7039409F4139417E200E1001621F444
:10003600111611F400241124002D112D47D0502E35
:10004600412E322E232E8FBF8F913F912F911F91DC
:100056000F9118950F931F930CE00EBD00E409BF96
:1000660019E70EE01BBD0ABD1F910F910F93F8947F
:1000760000E20BBF01E000BD78940F910EE107BBD3
:100086000FE701BB0024112478940F9300E108BB0D
:10009600052D5ED002BB43D00F910F9308E008BB3D
:1000A600042D56D002BB3BD00F910F9304E008BB42
:1000B600032D4ED002BB33D00F910F9302E008BB45
:1000C600022D46D002BB2BD00F91DFCF6F937F93CB
:1000D6008F939F9333E028EE13D0622F30E024E60F
:1000E6000FD0722F30E02AE00BD0822F902F092FED
:1000F600182F272F362F9F918F917F916F910895FB
:100106008F939F93882799270217130720F0021BC6
:10011600130B0196F9CF9C019F918F9108958F93B0
:100126009F9390E085E005D00197E9F79F919F9115
:1001360008950F931F9317E00BEC01501040E9F759
:100146001F910F9108953F065B4F666D7D077F6F88
:10015600EF93FF93ECE4F1E0E00F0491FF91EF9150
:020166000895FA
:00000001FF
