:020000020000FC
:100000000EE107BB0FE701BB00E0502E00E0402EE1
:1000100000E0302E00E0202E53940AE0501609F440
:1000200055240F9300E108BB052D30D002BB1AD038
:100030000F910F9308E008BB042D28D002BB12D00B
:100040000F910F9304E008BB032D20D002BB0AD010
:100050000F910F9302E008BB022D18D002BB02D013
:100060000F91DACF8F939F9390E08AEF05D001979D
:10007000E9F79F919F9108950F931F9317E00BEC61
:1000800001501040E9F71F910F910895EF93FF93EE
:10009000ECE9F0E0E00F0491FF91EF913F065B4F38
:0800A000666D7D077F6F089576
:00000001FF
